:1000000062C0000086C0000084C0000082C0000002
:1000100080C000007EC000007CC000007AC00000EC
:1000200078C0000076C0000074C0000072C00000FC
:1000300070C000006EC000006CC000006AC000000C
:1000400029C5000066C00000D7C2000007C3000039
:1000500060C000005EC000005CC000005AC000002C
:1000600058C0000056C00000000000080002010057
:100070000003040700000000000000000102040863
:100080001020408001020408102001020408102002
:10009000040404040404040402020202020203032E
:1000A00003030303000000002300260029000000D2
:1000B0000000250028002B0000000000240027007D
:1000C0002A0044015C0311241FBECFEFD8E0DEBF3D
:1000D000CDBF11E0A0E0B1E0E2E0F5E102C00590A3
:1000E0000D92AC33B107D9F721E0ACE3B1E001C028
:1000F0001D92AB3EB207E1F710E0C3E6D0E003C0CB
:100100002197FE012BD7C136D107D1F704D10C942A
:100110007F0A76CFCF92DF92EF92FF920F931F93D9
:10012000E82FF92F05C0015011092109310961F1AA
:10013000908196239417B9F305C001501109210944
:10014000310911F1908196239413F7CFC12CD12C52
:10015000E12CF12C0AC08FEFC81AD80AE80AF80A75
:100160000C151D052E053F0579F080818623841727
:1001700091F36C2D7D2D8E2D9F2D1F910F91FF9052
:10018000EF90DF90CF90089560E070E080E090E025
:100190001F910F91FF90EF90DF90CF900895CF9235
:1001A000DF92EF92FF9264E071E085E491E0FAD291
:1001B00061E08CE02BD66AE070E080E090E0E5D46E
:1001C00060E08CE023D6B0D46B017C0120E4C20E49
:1001D0002FE1D21EE11CF11CA7D46C157D058E0504
:1001E0009F0500F56FEF70E080E090E01AD483E0A7
:1001F0004BD56FEF70E080E090E013D485E044D5FC
:100200006FEF70E080E090E00CD486E03DD524EF05
:1002100031E040E050E068E270E080E090E019D426
:10022000B4D4DACF60E083E0F1D560E085E0EED5CC
:1002300060E086E0EBD56CE071E085E491E0FF9052
:10024000EF90DF90CF90AEC226E040E855E260E04C
:1002500070E085E491E06DD161E083E09BD561E0E1
:1002600085E098D561E086E095D561E08CE092D597
:1002700060E083E0CBD560E085E0C8D560E086E053
:10028000C5D560E08CE0C2C549E068E081E491E05A
:100290004BC0CF92DF92EF92FF9280914001882372
:1002A00019F07DDF109240018091400181112EC034
:1002B00081E491E05ED0AB01BC0140933C015093DE
:1002C0003D0160933E0170933F0122E030E085E400
:1002D00091E097D3C0903C01D0903D01E0903E0169
:1002E000F0903F0120E030E0A901C701B601FAD744
:1002F000181664F420E030E048EC52E4C701B6017F
:10030000A7D687FF03C081E080934001FF90EF9064
:10031000DF90CF9008957DD497DFCDEFD1E0B9DFA6
:100320002097E9F36AD0FBCFCF93FC01862FC42F2F
:1003300028E131E0318320836283438360E02AD562
:1003400061E08C2FCF9126C5CF93DF93EC0161E064
:100350008B815CD584E690E051D460E08B8156D5EA
:1003600024E13DE240E050E061E08A81DF91CF91FD
:100370007BC5EADF05D72DEC3CEC46E652E46CC6C3
:10038000FC01918D228D892F90E0805C9F4F821B14
:1003900091098F7399270895FC01918D828D98178B
:1003A00031F0828DE80FF11D858D90E008958FEF7B
:1003B0009FEF0895FC01918D828D981761F0828DD9
:1003C000DF01A80FB11D5D968C91928D9F5F9F7389
:1003D000928F90E008958FEF9FEF0895FC01538D69
:1003E000448D252F30E0842F90E0821B930B54170F
:1003F00010F0CF9608950197089583E593E0892B37
:1004000041F080E090E0892B21F04DD181110C94D6
:1004100000000895FC01848DDF01A80FB11DA35ACF
:10042000BF4F2C91848D90E001968F739927848F14
:10043000A689B7892C93A089B1898C918370806437
:100440008C93938D848D981306C00288F389E02DD8
:1004500080818F7D80830895EF92FF920F931F9389
:10046000CF93DF93EC0181E0888F9B8D8C8D981367
:1004700005C0E889F989808185FD25C0F62E0B8DA0
:1004800010E00F5F1F4F0F731127E02E8C8DE812C5
:100490000BC00FB607FCFACFE889F989808185FF88
:1004A000F5CFCE01B7DFF2CF8B8DFE01E80FF11D46
:1004B000E35AFF4FF0829FB7F8940B8FEA89FB89CC
:1004C000808180620AC09FB7F894EE89FF896083BB
:1004D000E889F98980818370806480839FBF81E08F
:1004E00090E0DF91CF911F910F91FF90EF900895D1
:1004F000CF93DF93EC01888D8823C1F0EA89FB89D3
:10050000808185FD05C0A889B9898C9186FD0EC0C2
:100510000FB607FCF5CF808185FFF2CFA889B98996
:100520008C9185FFEDCFCE0175DFE8CFDF91CF91C4
:100530000895CF92DF92EF92FF921F93CF93DF93B4
:10054000EC016A017B01122FE889F98982E080833E
:100550004115514E61057105A9F060E079E08DE328
:1005600090E0A7019601B2D4DA01C9010197A1096F
:10057000B109B695A795979587959C01211580E1BE
:100580003807A0F0E889F989108260E874E88EE104
:1005900090E0A70196019AD4DA01C9010197A10957
:1005A000B109B695A795979587959C01EC85FD8532
:1005B0003083EE85FF852083188EEC89FD891083BA
:1005C000EA89FB89808180618083EA89FB89808157
:1005D00088608083EA89FB89808180688083EA89DA
:1005E000FB8980818F7D8083DF91CF911F91FF9068
:1005F000EF90DF90CF9008951F920F920FB60F9259
:1006000011242F938F939F93EF93FF93E0915501C4
:10061000F09156018081E0915B01F0915C0182FDD7
:1006200012C0908180915E018F5F8F7320915F0176
:10063000821751F0E0915E01F0E0EB5BFE4F958F89
:1006400080935E0101C08081FF91EF919F918F9116
:100650002F910F900FBE0F901F9018951F920F9221
:100660000FB60F9211242F933F934F935F936F9385
:100670007F938F939F93AF93BF93EF93FF9385E403
:1006800091E0C8DEFF91EF91BF91AF919F918F9163
:100690007F916F915F914F913F912F910F900FBE7E
:1006A0000F901F90189585E491E06ADE21E0892B78
:1006B00009F420E0822F0895E5E4F1E0138212822C
:1006C00088EE93E0A0E0B0E084839583A683B783AF
:1006D0008EE191E09183808385EC90E0958784871B
:1006E00084EC90E09787868780EC90E0918B808BFC
:1006F00081EC90E0938B828B82EC90E0958B848BE5
:1007000086EC90E0978B868B118E128E138E148E52
:100710000895CF92DF92EF92FF920F931F93CF93A2
:10072000DF936C017A018B01C0E0D0E0CE15DF05CC
:1007300081F0D8016D918D01D601ED91FC91019070
:10074000F081E02DC6010995892B11F02196EECF9D
:100750007E01C701DF91CF911F910F91FF90EF9024
:10076000DF90CF9008956115710579F0FB0101903C
:100770000020E9F73197AF01461B570BDC01ED91E3
:10078000FC910280F381E02D099480E090E00895CF
:10079000DC01ED91FC910190F081E02D09946CE277
:1007A00071E0E1CF0F931F93CF93DF93EC01DBDF79
:1007B0008C01CE01F4DF800F911FDF91CF911F914B
:1007C0000F9108958F929F92AF92BF92EF92FF92F6
:1007D0000F931F93CF93DF93CDB7DEB7A1970FB6DB
:1007E000F894DEBF0FBECDBF7C01FA01CB0119A288
:1007F000223008F42AE08E010F5D1F4F822E912CCB
:10080000A12CB12CBF01A501940160D3F901CA014B
:10081000015011096A3010F4605D01C0695CD801B3
:100820006C93232B242B252B69F7B801C7019BDF81
:10083000A1960FB6F894DEBF0FBECDBFDF91CF916A
:100840001F910F91FF90EF90BF90AF909F908F906E
:1008500008952115310541F4DC01ED91FC910190E1
:10086000F081E02D642F0994ADCF9A01AB0160E0D7
:1008700070E0EFCF7F928F929F92AF92BF92CF9214
:10088000DF92EF92FF920F931F93CF93DF938C0130
:100890006A017B01722E9A01AB01C701B60189D5AD
:1008A000882319F06FE271E024C046015701E894F3
:1008B000B7F82FEF3FEF4FE75FE7C501B40179D5F8
:1008C00081110CC02FEF3FEF4FE75FE7C501B40187
:1008D000BFD318161CF463E371E00BC02FEF3FEF9A
:1008E0004FE75FE4C701B601FDD418168CF467E347
:1008F00071E0C801DF91CF911F910F91FF90EF90B0
:10090000DF90CF90BF90AF909F908F907F902BCF34
:100910002FEF3FEF4FE75FECC701B60199D387FD9B
:10092000E6CF20E030E0A901C701B60191D387FFEF
:1009300009C06DE2C8012CDFEC01F7FAF094F7F87A
:10094000F09402C0C0E0D0E0B12C60E070E080E044
:100950009FE37B1439F020E030E040E251E47CD3A7
:10096000B394F7CFA70196010FD36B017C01DCD3C1
:100970004B015C012AE0AB01BC01C80123DFC80FB9
:10098000D91F772079F1C501B401FAD39B01AC01DD
:10099000C701B601F8D26B017C016EE2C801F8DE36
:1009A000C80FD91F20E030E040E251E4C701B60192
:1009B0009DD44B015C01B8D36B017C014AE050E04F
:1009C000C80153DFC80FD91FB60180E090E0D8D32B
:1009D0009B01AC01C501B401D6D26B017C017A94B4
:1009E0007110E0CFCE01DF91CF911F910F91FF9059
:1009F000EF90DF90CF90BF90AF909F908F907F90BF
:100A000008950F931F93CF93DF93EC0133DF8C0195
:100A1000CE01C5DE800F911FDF91CF911F910F9105
:100A20000895CF92DF92EF92FF92611571058105D3
:100A3000910539F06B017C0108D5A701960168D2B8
:100A400003C060E070E0CB01FF90EF90DF90CF90AB
:100A50000895CF92DF92EF92FF920F931F93621748
:100A60007307840795077CF489019A016B017C0167
:100A7000C901B8016C197D098E099F09D2DF6C0D7F
:100A80007D1D8E1D9F1D1F910F91FF90EF90DF9098
:100A9000CF9008951F920F920FB60F9211242F93AB
:100AA0003F938F939F93AF93BF938091E301909176
:100AB000E401A091E501B091E6013091E20123E06B
:100AC000230F2D3720F40196A11DB11D05C026E886
:100AD000230F0296A11DB11D2093E2018093E30133
:100AE0009093E401A093E501B093E6018091E701C2
:100AF0009091E801A091E901B091EA010196A11D50
:100B0000B11D8093E7019093E801A093E901B093B0
:100B1000EA01BF91AF919F918F913F912F910F90DB
:100B20000FBE0F901F9018952FB7F8946091E301B6
:100B30007091E4018091E5019091E6012FBF089545
:100B40003FB7F8948091E7019091E801A091E90105
:100B5000B091EA0126B5A89B05C02F3F19F0019678
:100B6000A11DB11D3FBFBA2FA92F982F8827820F33
:100B7000911DA11DB11DBC01CD0142E0660F771F83
:100B8000881F991F4A95D1F708958F929F92AF922F
:100B9000BF92CF92DF92EF92FF926B017C01D0DF88
:100BA0004B015C01C114D104E104F104F1F08DD1D9
:100BB000C7DFDC01CB0188199909AA09BB09883E66
:100BC0009340A105B10570F321E0C21AD108E108F4
:100BD000F10888EE880E83E0981EA11CB11CC11498
:100BE000D104E104F10421F7DDCFFF90EF90DF9015
:100BF000CF90BF90AF909F908F90089582309105D5
:100C000038F0880F991F880F991F05970197F1F702
:100C10000895789484B5826084BD84B5816084BD74
:100C200085B5826085BD85B5816085BDEEE6F0E065
:100C3000808181608083E1E8F0E0108280818260C1
:100C40008083808181608083E0E8F0E08081816042
:100C50008083E1EBF0E0808184608083E0EBF0E072
:100C6000808181608083EAE7F0E080818460808316
:100C700080818260808380818160808380818068C0
:100C800080831092C10008951F93CF93DF93182F94
:100C9000EB0161E07FD0209711F460E004C0CF3F0A
:100CA000D10531F461E0812FDF91CF911F91AEC06A
:100CB000E12FF0E0E859FF4FE491E330F9F048F418
:100CC000E130B9F0E230A1F584B5806284BDC8BDE1
:100CD00034C0E730E9F0E83019F1E43049F58091AB
:100CE0008000806280938000D0938B00C0938A0044
:100CF00024C084B5806884BDC7BD1FC080918000BA
:100D0000806880938000D0938900C093880015C0CC
:100D10008091B00080688093B000C093B3000DC094
:100D20008091B00080628093B000C093B40005C091
:100D3000C038D1050CF0B6CFB0CFDF91CF911F9165
:100D40000895833081F028F4813099F08230A1F049
:100D500008958730A9F08830B9F08430D1F48091BB
:100D600080008F7D03C0809180008F77809380000A
:100D7000089584B58F7702C084B58F7D84BD0895B2
:100D80008091B0008F7703C08091B0008F7D8093F9
:100D9000B0000895CF93DF9390E0FC01E458FF4F3B
:100DA0002491FC01E057FF4F8491882361F190E08A
:100DB000880F991FFC01E854FF4FC591D491FC01A5
:100DC000E255FF4FA591B491611109C09FB7F89406
:100DD0008881209582238883EC912E230BC062307A
:100DE00061F49FB7F8948881322F309583238883EC
:100DF000EC912E2B2C939FBF06C08FB7F894E881FF
:100E00002E2B28838FBFDF91CF9108951F93CF930F
:100E1000DF93282F30E0F901E859FF4F8491F90161
:100E2000E458FF4FD491F901E057FF4FC491CC2310
:100E3000B9F0162F811185DFEC2FF0E0EE0FFF1FC8
:100E4000E255FF4FA591B4919FB7F894111104C0DA
:100E50008C91D095D82302C0EC91DE2BDC939FBF00
:100E6000DF91CF911F9108950F931F9390E0FC01A4
:100E7000E458FF4F7491FC01E057FF4FE491662363
:100E800011F0672F01C060E0F0E0EE0FFF1FEC559E
:100E9000FF4F8591949189019A013F70462F672FEA
:100EA00039D9611571058105910549F0DC01CB0146
:100EB0000196A11DB11DBC01CD019F7003C060E072
:100EC00070E0CB011F910F9108950895A1E21A2EB1
:100ED000AA1BBB1BFD010DC0AA1FBB1FEE1FFF1FDE
:100EE000A217B307E407F50720F0A21BB30BE40B2E
:100EF000F50B661F771F881F991F1A9469F7609575
:100F00007095809590959B01AC01BD01CF0108952E
:100F1000052E97FB16F400940FD057FD05D0D6DFB1
:100F200007FC02D046F408C05095409530952195B5
:100F30003F4F4F4F5F4F0895909580957095619505
:100F40007F4F8F4F9F4F08950FD0A59F900DB49F57
:100F5000900DA49F800D911D11240895EE0FFF1F89
:100F60000590F491E02D0994A29FB001B39FC001B8
:100F7000A39F700D811D1124911DB29F700D811DC5
:100F80001124911D08955058BB27AA270ED070C177
:100F900061D130F066D120F031F49F3F11F41EF49E
:100FA00056C10EF4E095E7FB4CC1E92F72D180F3F6
:100FB000BA17620773078407950718F071F49EF556
:100FC0008AC10EF4E0950B2EBA2FA02D0B01B901AA
:100FD00090010C01CA01A0011124FF27591B99F0AF
:100FE000593F50F4503E68F11A16F040A22F232FBB
:100FF000342F4427585FF3CF469537952795A7950B
:10100000F0405395C9F77EF41F16BA0B620B730BB1
:10101000840BBAF09150A1F0FF0FBB1F661F771F22
:10102000881FC2F70EC0BA0F621F731F841F48F4D7
:10103000879577956795B795F7959E3F08F0B3CF5D
:101040009395880F08F09927EE0F97958795089547
:10105000D4D008F481E008950CD00AC102D140F048
:10106000F9D030F021F45F3F19F0EBC0511134C1D9
:10107000EEC00FD198F39923C9F35523B1F3951B13
:10108000550BBB27AA2762177307840738F09F5FA9
:101090005F4F220F331F441FAA1FA9F333D00E2E18
:1010A0003AF0E0E830D091505040E695001CCAF785
:1010B00029D0FE2F27D0660F771F881FBB1F26174A
:1010C00037074807AB07B0E809F0BB0B802DBF011D
:1010D000FF2793585F4F2AF09E3F510568F0B1C03B
:1010E000FBC05F3FECF3983EDCF386957795679500
:1010F000B795F7959F5FC9F7880F911D96958795CE
:1011000097F90895E1E0660F771F881FBB1F6217EC
:1011100073078407BA0720F0621B730B840BBA0BAA
:10112000EE1F88F7E0950895BCD088F09F5790F0A7
:10113000B92F9927B751A0F0D1F0660F771F881FFC
:10114000991F1AF0BA95C9F712C0B13081F0C3D017
:10115000B1E00895C0C0672F782F8827B85F39F0B5
:10116000B93FCCF3869577956795B395D9F73EF45B
:1011700090958095709561957F4F8F4F9F4F089503
:10118000E89409C097FB3EF4909580957095619521
:101190007F4F8F4F9F4F9923A9F0F92F96E9BB27D7
:1011A0009395F695879577956795B795F111F8CF53
:1011B000FAF4BB0F11F460FF1BC06F5F7F4F8F4FBE
:1011C0009F4F16C0882311F096E911C0772321F0B4
:1011D0009EE8872F762F05C0662371F096E8862F4C
:1011E00070E060E02AF09A95660F771F881FDAF7A3
:1011F000880F9695879597F90895990F0008550FD0
:10120000AA0BE0E8FEEF16161706E807F907C0F08C
:1012100012161306E407F50798F0621B730B840B94
:10122000950B39F40A2661F0232B242B252B21F46E
:1012300008950A2609F4A140A6958FEF811D811D0E
:10124000089597F99F6780E870E060E008959FEF48
:1012500080EC089500240A9416161706180609064D
:10126000089500240A94121613061406050608951C
:10127000092E0394000C11F4882352F0BB0F40F4A4
:10128000BF2B11F460FF04C06F5F7F4F8F4F9F4FE4
:10129000089557FD9058440F551F59F05F3F71F066
:1012A0004795880F97FB991F61F09F3F79F08795CD
:1012B0000895121613061406551FF2CF4695F1DF56
:1012C00008C0161617061806991FF1CF86957105E6
:1012D000610508940895E894BB2766277727CB011A
:1012E00097F908958ADF08F48FEF08950BD0C0CFE7
:1012F000B1DF28F0B6DF18F0952309F0A2CFA7CF11
:101300001124EACFC6DFA0F3959FD1F3950F50E0EB
:10131000551F629FF001729FBB27F00DB11D639FA7
:10132000AA27F00DB11DAA1F649F6627B00DA11D4D
:10133000661F829F2227B00DA11D621F739FB00DF3
:10134000A11D621F839FA00D611D221F749F332763
:10135000A00D611D231F849F600D211D822F762FFC
:101360006A2F11249F5750408AF0E1F088234AF0F9
:10137000EE0FFF1FBB1F661F771F881F9150504045
:10138000A9F79E3F510570F05CCFA6CF5F3FECF30D
:10139000983EDCF3869577956795B795F795E79531
:1013A0009F5FC1F7FE2B880F911D9695879597F942
:1013B000089523DF880B990B08958F929F92AF9227
:1013C000BF92CF92DF92EF92FF92CF93DF93EC0127
:1013D000688179818A819B816115710581059105FB
:1013E00021F464E279ED8BE597E02DE133EF41E004
:1013F00050E08EDD49015A019B01AC01A7EAB1E43E
:10140000A3DD6B017C01ACEEB4EFA501940173D0B8
:10141000DC01CB018C0D9D1DAE1DBF1DB7FF03C0B0
:101420000197A109B04888839983AA83BB83BC0133
:10143000CD019F77DF91CF91FF90EF90DF90CF901C
:10144000BF90AF909F908F9008958F929F92AF9290
:10145000BF92CF92DF92EF92FF9260910001709164
:1014600001018091020190910301611571058105CF
:10147000910521F464E279ED8BE597E02DE133EFFE
:1014800041E050E045DD49015A019B01AC01A7EA6A
:10149000B1E45ADD6B017C01ACEEB4EFA50194011F
:1014A0002AD0DC01CB018C0D9D1DAE1DBF1DB7FFE9
:1014B00003C00197A109B0488093000190930101F6
:1014C000A0930201B0930301BC01CD019F77FF906F
:1014D000EF90DF90CF90BF90AF909F908F90089546
:1014E00060930001709301018093020190930301C6
:1014F0000895B7FF29CD28DD821B930B0895F8943A
:02150000FFCF1B
:101502000100000052756E6E696E6700446F6E6571
:101512002E2E2E0000000000B901000000002C0257
:101522008903EE017802C001DA01CC010D0A006ED6
:0C153200616E00696E66006F7666000056
:00000001FF
