:1000000062C0000085C0000083C0000081C0000005
:100010007FC000007DC000007BC0000079C00000F0
:1000200077C0000075C0000073C0000071C0000000
:100030006FC000006DC000006BC0000069C0000010
:1000400014C2000065C0000011C1000041C10000E1
:100050005FC000005DC000005BC0000059C0000030
:1000600057C0000055C00000000000080002010059
:100070000003040700000000000000000102040863
:100080001020408001020408102001020408102002
:10009000040404040404040402020202020203032E
:1000A00003030303000000002300260029000000D2
:1000B0000000250028002B0000000000240027007D
:1000C0002A00F9008D0111241FBECFEFD8E0DEBF5A
:1000D000CDBF11E0A0E0B1E0E2EBFDE002C0059091
:1000E0000D92AC31B107D9F721E0ACE1B1E001C02C
:1000F0001D92A63CB207E1F710E0C6ECD0E003C0C9
:100100002297FE01EFD4C23CD107D1F770D04FC681
:1001100077CFCF92DF92EF92FF920F931F93E82F4A
:10012000F92F05C0015011092109310961F19081B0
:1001300096239417B9F305C001501109210931091B
:1001400011F1908196239413F7CFC12CD12CE12C7F
:10015000F12C0AC08FEFC81AD80AE80AF80A0C1561
:100160001D052E053F0579F080818623841791F3C4
:100170006C2D7D2D8E2D9F2D1F910F91FF90EF9057
:10018000DF90CF90089560E070E080E090E01F91F4
:100190000F91FF90EF90DF90CF90089561E083E0A2
:1001A000D4D261E085E0D1D261E086E0CED26FEFBB
:1001B00070E080E090E01CD183E041D26FEF70E00E
:1001C00080E090E015D185E03AD26FEF70E080E0FA
:1001D00090E00ED186E033D224EF31E040E050E0F1
:1001E00068E270E080E090E025D1ACD1E0CFECD1C6
:1001F000D5DF49E068E08CE191E000C0CF93DF9368
:100200001F92CDB7DEB7FC01862F28E031E03183A5
:1002100020836283438360E0498397D261E0498110
:10022000842F0F90DF91CF9190C2CF93DF93EC0199
:1002300061E08B81C3D284E690E0BBD160E08B812A
:10024000BDD224E13DE240E050E061E08A81EBD2A2
:100250006456710981099109DF91CF910895E5DF15
:10026000BCD42DEC3CEC46E652E44FC41F920F92F6
:100270000FB60F9211242F938F939F93EF93FF93B9
:10028000E0913001F09131018081E0913601F091EF
:10029000370182FD12C09081809139018F5F8F7389
:1002A00020913A01821751F0E0913901F0E0E05ECF
:1002B000FE4F958F8093390101C08081FF91EF91AE
:1002C0009F918F912F910F900FBE0F901F901895B7
:1002D0001F920F920FB60F9211242F933F934F93BB
:1002E0005F936F937F938F939F93AF93BF93EF939E
:1002F000FF9380E291E0FED2FF91EF91BF91AF9129
:100300009F918F917F916F915F914F913F912F912D
:100310000F900FBE0F901F9018951092230110920E
:10032000220188EE93E0A0E0B0E080932401909356
:100330002501A0932601B09327018EE091E09093D0
:1003400021018093200185EC90E090932D01809312
:100350002C0184EC90E090932F0180932E0180EC8F
:1003600090E0909331018093300181EC90E0909384
:1003700033018093320182EC90E0909335018093B9
:10038000340186EC90E0909337018093360110920F
:10039000390110923A0110923B0110923C010895EC
:1003A000CF92DF92EF92FF920F931F93CF93DF9341
:1003B0007C016A01EB0100E010E00C151D0571F0F5
:1003C0006991D701ED91FC910190F081E02DC70179
:1003D0000995892B19F00F5F1F4FEFCFC801DF91EF
:1003E000CF911F910F91FF90EF90DF90CF900895E4
:1003F000CF93DF9300D000D0CDB7DEB79B01AC0127
:10040000611571058105910559F069833A834B8324
:100410005C83BBD429813A814B815C813BD303C08F
:1004200060E070E0CB010F900F900F900F90DF9184
:10043000CF910895CF92DF92EF92FF926B017C01F2
:1004400062177307840795075CF4CA01B9016C1938
:100450007D098E099F09CCDF6C0D7D1D8E1D9F1DB2
:10046000FF90EF90DF90CF9008951F920F920FB6FC
:100470000F9211242F933F938F939F93AF93BF932A
:100480008091BE019091BF01A091C001B091C101C6
:100490003091BD0123E0230F2D3720F40196A11DDB
:1004A000B11D05C026E8230F0296A11DB11D2093A2
:1004B000BD018093BE019093BF01A093C001B09392
:1004C000C1018091C2019091C301A091C401B0917A
:1004D000C5010196A11DB11D8093C2019093C30176
:1004E000A093C401B093C501BF91AF919F918F912B
:1004F0003F912F910F900FBE0F901F9018953FB70F
:10050000F8948091C2019091C301A091C401B0916F
:10051000C50126B5A89B05C02F3F19F00196A11D66
:10052000B11D3FBF6627782F892F9A2F620F711D4B
:10053000811D911D42E0660F771F881F991F4A9504
:10054000D1F708958F929F92AF92BF92CF92DF9290
:10055000EF92FF926B017C01D2DF4B015C01C11471
:10056000D104E104F104E1F072D2C9DF681979091C
:100570008A099B09683E73408105910580F321E05B
:10058000C21AD108E108F10888EE880E83E0981EAF
:10059000A11CB11CC114D104E104F10431F7DFCF77
:1005A000FF90EF90DF90CF90BF90AF909F908F9093
:1005B00008958230910538F0880F991F880F991F90
:1005C00005970197F1F70895789484B5826084BD0A
:1005D00084B5816084BD85B5826085BD85B5816047
:1005E00085BDEEE6F0E0808181608083E1E8F0E0A7
:1005F0001082808182608083808181608083E0E8D6
:10060000F0E0808181608083E1EBF0E080818460B4
:100610008083E0EBF0E0808181608083EAE7F0E0B6
:10062000808184608083808182608083808181601A
:1006300080838081806880831092C10008951F9319
:10064000CF93DF93182FEB0161E07FD0209711F457
:1006500060E004C0CF3FD10531F461E0812FDF912C
:10066000CF911F91ABC0E12FF0E0E859FF4FE4912B
:10067000E330F9F048F4E130B9F0E230A1F584B5A7
:10068000806284BDC8BD34C0E730E9F0E83019F1BC
:10069000E43049F580918000806280938000D0939F
:1006A0008B00C0938A0024C084B5806884BDC7BD18
:1006B0001FC080918000806880938000D093890063
:1006C000C093880015C08091B00080688093B0000E
:1006D000C093B3000DC08091B00080628093B000E1
:1006E000C093B40005C0C038D1050CF0B6CFB0CF70
:1006F000DF91CF911F910895833081F028F48130EC
:1007000099F08230A1F008958730A9F08830B9F0CF
:100710008430D1F4809180008F7D03C0809180006F
:100720008F7780938000089584B58F7702C084B559
:100730008F7D84BD08958091B0008F7703C0809134
:10074000B0008F7D8093B0000895CF93DF9390E049
:10075000FC01E458FF4F2491FC01E057FF4F8491C6
:10076000882349F190E0880F991FFC01E854FF4F5E
:10077000A591B49182559F4FFC01C591D4919FB72B
:10078000611108C0F8948C91209582238C93888104
:1007900082230AC0623051F4F8948C91322F309544
:1007A00083238C938881822B888304C0F8948C9156
:1007B000822B8C939FBFDF91CF9108950F931F934E
:1007C000CF93DF931F92CDB7DEB7282F30E0F9012A
:1007D000E859FF4F8491F901E458FF4F1491F90152
:1007E000E057FF4F04910023C1F0882319F069837B
:1007F00083DF6981E02FF0E0EE0FFF1FE255FF4F2E
:10080000A591B4919FB7F8948C91611103C0109594
:10081000812301C0812B8C939FBF0F90DF91CF91DB
:100820001F910F9108950F931F93762F90E0FC0175
:10083000E458FF4F6491FC01E057FF4FE4917111C0
:10084000762FF0E0EE0FFF1FEC55FF4F859194914E
:1008500089019A013F70472F5CDC611571058105A4
:10086000910531F06F5F7F4F8F4F9F4F9F7003C097
:1008700060E070E0CB011F910F910895FC01818D24
:10088000228D90E0805C9F4F821B91098F73992786
:100890000895FC01918D828D981731F0828DE80FBB
:1008A000F11D858D90E008958FEF9FEF0895FC0175
:1008B000918D828D981761F0828DDF01A80FB11D97
:1008C0005D968C91928D9F5F9F73928F90E00895BB
:1008D0008FEF9FEF0895FC01538D448D252F30E05D
:1008E000842F90E0821B930B541710F0CF9608953D
:1008F00001970895FC01848DDF01A80FB11DA35A53
:10090000BF4F2C91848D90E001968F739927848F2F
:10091000A689B7892C93A089B1898C918370806452
:100920008C93938D848D981306C00288F389E02DF3
:1009300080818F7D80830895CF93DF93EC01888D34
:100940008823C1F0EA89FB89808185FD05C0A889DB
:10095000B9898C9186FD0EC00FB607FCF5CF80815A
:1009600085FFF2CFA889B9898C9185FFEDCFCE01A3
:10097000C1DFE8CFDF91CF910895CF92DF92FF9250
:100980000F931F93CF93DF931F92CDB7DEB76C0108
:1009900081E0D60158968C9358975B969C915B9713
:1009A0005C968C915C97981307C05096ED91FC91E2
:1009B0005197808185FD2FC0F601038D10E00F5FF8
:1009C0001F4F0F731127F02EF601848DF81210C0FF
:1009D0000FB607FCF9CFD6015096ED91FC915197D7
:1009E000808185FFF1CFC601698384DF6981ECCF07
:1009F000838DE80FF11DE35AFF4F60839FB7F89492
:100A0000D6015B960C935B975296ED91FC915397B0
:100A1000808180620FC09FB7F894D6015696ED9101
:100A2000FC91579760835096ED91FC91519780818E
:100A30008370806480839FBF81E090E00F90DF919E
:100A4000CF911F910F91FF90DF90CF90089508955F
:100A5000A1E21A2EAA1BBB1BFD010DC0AA1FBB1FC2
:100A6000EE1FFF1FA217B307E407F50720F0A21B34
:100A7000B30BE40BF50B661F771F881F991F1A94A1
:100A800069F760957095809590959B01AC01BD01CB
:100A9000CF010895052E97FB16F400940FD057FD53
:100AA00005D0D6DF07FC02D046F408C0509540952B
:100AB000309521953F4F4F4F5F4F0895909580950A
:100AC000709561957F4F8F4F9F4F08950FD0A59FD1
:100AD000900DB49F900DA49F800D911D1124089539
:100AE000EE0FFF1F0590F491E02D0994A29FB00135
:100AF000B39FC001A39F700D811D1124911DB29F52
:100B0000700D811D1124911D08950CD0BAC0B2D072
:100B100040F0A9D030F021F45F3F19F09BC0511193
:100B2000E4C09EC0BFD098F39923C9F35523B1F315
:100B3000951B550BBB27AA2762177307840738F04C
:100B40009F5F5F4F220F331F441FAA1FA9F333D0AB
:100B50000E2E3AF0E0E830D091505040E695001C5F
:100B6000CAF729D0FE2F27D0660F771F881FBB1F1B
:100B7000261737074807AB07B0E809F0BB0B802DF5
:100B8000BF01FF2793585F4F2AF09E3F510568F041
:100B900061C0ABC05F3FECF3983EDCF38695779580
:100BA0006795B795F7959F5FC9F7880F911D969543
:100BB000879597F90895E1E0660F771F881FBB1F9F
:100BC000621773078407BA0720F0621B730B840B4C
:100BD000BA0BEE1F88F7E0950895E89409C097FBDB
:100BE0003EF490958095709561957F4F8F4F9F4F04
:100BF0009923A9F0F92F96E9BB279395F695879548
:100C000077956795B795F111F8CFFAF4BB0F11F40A
:100C100060FF1BC06F5F7F4F8F4F9F4F16C08823B1
:100C200011F096E911C0772321F09EE8872F762FE7
:100C300005C0662371F096E8862F70E060E02AF028
:100C40009A95660F771F881FDAF7880F9695879514
:100C500097F9089597F99F6780E870E060E008953C
:100C60009FEF80EC089500240A94161617061806C4
:100C70000906089500240A941216130614060506A0
:100C80000895092E0394000C11F4882352F0BB0F31
:100C900040F4BF2B11F460FF04C06F5F7F4F8F4F94
:100CA0009F4F089557FD9058440F551F59F05F3FCF
:100CB00071F04795880F97FB991F61F09F3F79F07E
:100CC00087950895121613061406551FF2CF469500
:100CD000F1DF08C0161617061806991FF1CF869582
:100CE0007105610508940895E894BB276627772766
:100CF000CB0197F908958F929F92AF92BF92CF92B6
:100D0000DF92EF92FF92CF93DF93EC0168817981BC
:100D10008A819B81611571058105910521F464E249
:100D200079ED8BE597E02DE133EF41E050E0B2DE65
:100D300049015A019B01AC01A7EAB1E4C7DE6B018E
:100D40007C01ACEEB4EFA50194012DD0C60ED71EE8
:100D5000E81EF91EF7FE06C081E0C81AD108E108B6
:100D600080E8F80AC882D982EA82FB82C701B6010C
:100D70009F77DF91CF91FF90EF90DF90CF90BF9062
:100D8000AF909F908F900895B6CF80E091E0B3CF61
:100D9000609300017093010180930201909303011D
:100DA0000895B7FF93CE92DE821B930B0895F894BB
:020DB000FFCF73
:100DB20001000000000000002F0100000000BD043F
:0C0DC200D0016B049C043E04570449045B
:00000001FF
