:1000000062C0000086C0000084C0000082C0000002
:1000100080C000007EC000007CC000007AC00000EC
:1000200078C0000076C0000074C0000072C00000FC
:1000300070C000006EC000006CC000006AC000000C
:1000400033C5000066C00000D1C2000001C300003B
:1000500060C000005EC000005CC000005AC000002C
:1000600058C0000056C00000000000080002010057
:100070000003040700000000000000000102040863
:100080001020408001020408102001020408102002
:10009000040404040404040402020202020203032E
:1000A00003030303000000002300260029000000D2
:1000B0000000250028002B0000000000240027007D
:1000C0002A002A01560311241FBECFEFD8E0DEBF5D
:1000D000CDBF11E0A0E0B1E0EEE7F4E102C0059091
:1000E0000D92AC33B107D9F721E0ACE3B1E001C028
:1000F0001D92AB3EB207E1F710E0C6ECD0E003C0C2
:100100002297FE0131D7C23CD107D1F7D8D00C9449
:100110003D0A76CFCF92DF92EF92FF920F931F931B
:10012000E82FF92F05C0015011092109310961F1AA
:10013000908196239417B9F305C001501109210944
:10014000310911F1908196239413F7CFC12CD12C52
:10015000E12CF12C0AC08FEFC81AD80AE80AF80A75
:100160000C151D052E053F0579F080818623841727
:1001700091F36C2D7D2D8E2D9F2D1F910F91FF9052
:10018000EF90DF90CF90089560E070E080E090E025
:100190001F910F91FF90EF90DF90CF900895CF9235
:1001A000DF92EF92FF9264E071E085E491E009D381
:1001B000C5D46B017C0188E8C80E83E1D81EE11C20
:1001C000F11CBCD46C157D058E059F0500F56FEF05
:1001D00070E080E090E02BD483E05CD56FEF70E0BE
:1001E00080E090E024D485E055D56FEF70E080E0AA
:1001F00090E01DD486E04ED524EF31E040E050E0A1
:1002000068E270E080E090E034D4C7D4DACF60E0F8
:1002100083E0FFD560E085E0FCD560E086E0F9D5BD
:100220006CE071E085E491E0FF90EF90DF90CF907B
:10023000C8C226E040E855E260E070E085E491E065
:1002400075D161E083E0ACD561E085E0A9D561E0DE
:1002500086E0A6C549E068E081E491E039C080917C
:100260004001882319F09BDF1092400180914001EA
:10027000811124C081E491E05CD0AB01BC014093CA
:100280003C0150933D0160933E0170933F0122E099
:1002900030E085E491E0BBD320E030E040EA51E477
:1002A00060913C0170913D0180913E0190913F0130
:1002B000D3D687FF03C081E0809340010895AFD477
:1002C000B8DFCCEDD1E0CBDF2097E9F375D0FBCFE1
:1002D000CF93DF931F92CDB7DEB7FC01862F28E1C5
:1002E00031E0318320836283438360E0498358D5C2
:1002F00061E04981842F0F90DF91CF9151C5CF9359
:10030000DF93EC0161E08B8184D584E690E07CD4BE
:1003100060E08B817ED524E13DE240E050E061E089
:100320008A81ACD56456710981099109DF91CF9119
:100330000895E5DF29D72DEC3CEC46E652E490C663
:10034000FC01818D228D90E0805C9F4F821B910982
:100350008F7399270895FC01918D828D981731F044
:10036000828DE80FF11D858D90E008958FEF9FEF4E
:100370000895FC01918D828D981761F0828DDF01C7
:10038000A80FB11D5D968C91928D9F5F9F73928F88
:1003900090E008958FEF9FEF0895FC01538D448DF9
:1003A000252F30E0842F90E0821B930B541710F020
:1003B000CF960895019708958DE493E0892B41F03D
:1003C00080E090E0892B21F068D181110C9400002D
:1003D0000895FC01848DDF01A80FB11DA35ABF4F02
:1003E0002C91848D90E001968F739927848FA68934
:1003F000B7892C93A089B1898C91837080648C9388
:10040000938D848D981306C00288F389E02D808136
:100410008F7D80830895CF93DF93EC01888D8823AF
:10042000C1F0EA89FB89808185FD05C0A889B98969
:100430008C9186FD0EC00FB607FCF5CF808185FF3D
:10044000F2CFA889B9898C9185FFEDCFCE01C1DFAC
:10045000E8CFDF91CF910895CF92DF92FF920F9373
:100460001F93CF93DF931F92CDB7DEB76C0181E06E
:10047000D60158968C9358975B969C915B975C96A7
:100480008C915C97981307C05096ED91FC91519711
:10049000808185FD2FC0F601038D10E00F5F1F4F97
:1004A0000F731127F02EF601848DF81210C00FB6CD
:1004B00007FCF9CFD6015096ED91FC9151978081C0
:1004C00085FFF1CFC601698384DF6981ECCF838D1D
:1004D000E80FF11DE35AFF4F60839FB7F894D601F0
:1004E0005B960C935B975296ED91FC9153978081AC
:1004F00080620FC09FB7F894D6015696ED91FC919B
:10050000579760835096ED91FC915197808183704D
:10051000806480839FBF81E090E00F90DF91CF9156
:100520001F910F91FF90DF90CF900895BF92CF92CF
:10053000DF92EF92FF92CF93DF93EC016A017B0190
:10054000B22EE889F98982E08083411581EE58074F
:100550006105710599F060E079E08DE390E0A70115
:100560009601B8D421503109410951095695479552
:1005700037952795211580E1380790F0E889F989AA
:10058000108260E874E88EE190E0A7019601A2D4A1
:1005900021503109410951095695479537952795BD
:1005A000EC85FD853083EE85FF852083188EEC89F0
:1005B000FD89B082EA89FB89808180618083EA8934
:1005C000FB89808188608083EA89FB8980818068DB
:1005D0008083EA89FB8980818F7D8083DF91CF9141
:1005E000FF90EF90DF90CF90BF9008951F920F92F1
:1005F0000FB60F9211242F938F939F93EF93FF9336
:10060000E0915501F09156018081E0915B01F091FC
:100610005C0182FD12C0908180915E018F5F8F73BB
:1006200020915F01821751F0E0915E01F0E0EB5BF9
:10063000FE4F958F80935E0101C08081FF91EF9105
:100640009F918F912F910F900FBE0F901F90189533
:100650001F920F920FB60F9211242F933F934F9337
:100660005F936F937F938F939F93AF93BF93EF931A
:10067000FF9385E491E0ADDEFF91EF91BF91AF91E3
:100680009F918F917F916F915F914F913F912F91AA
:100690000F900FBE0F901F90189585E491E050DEEB
:1006A00021E0892B09F420E0822F0895109248015F
:1006B0001092470188EE93E0A0E0B0E080934901FA
:1006C00090934A01A0934B01B0934C018EE191E0CD
:1006D000909346018093450185EC90E09093520100
:1006E0008093510184EC90E09093540180935301E6
:1006F00080EC90E0909356018093550181EC90E05E
:10070000909358018093570182EC90E090935A01A6
:100710008093590186EC90E090935C0180935B019B
:1007200010925E0110925F011092600110926101BF
:100730000895CF92DF92EF92FF920F931F93CF9382
:10074000DF937C016A01EB0100E010E00C151D0550
:1007500071F06991D701ED91FC910190F081E02D4C
:10076000C7010995892B19F00F5F1F4FEFCFC80103
:10077000DF91CF911F910F91FF90EF90DF90CF907D
:1007800008956115710581F0DB010D900020E9F7F6
:10079000AD0141505109461B570BDC01ED91FC9115
:1007A0000280F381E02D099480E090E00895DC015F
:1007B000ED91FC910190F081E02D09946CE271E0E3
:1007C000E0CF0F931F93CF93DF93EC01DADF8C011F
:1007D000CE01F4DF800F911FDF91CF911F910F9118
:1007E00008958F929F92AF92BF92DF92EF92FF9205
:1007F0000F931F93CF93DF93CDB7DEB7A1970FB6BB
:10080000F894DEBF0FBECDBF7C01F42FD52ECB01F7
:1008100019A2223008F42AE08E010F5D1F4F822EAC
:10082000912CA12CB12C6F2F7D2DA501940152D3B9
:10083000F22FD32ECA01015011096A3010F4E0E3FF
:1008400001C0E7E3E60FD801EC93232B242B252BE3
:1008500051F7B801C70195DFA1960FB6F894DEBF36
:100860000FBECDBFDF91CF911F910F91FF90EF9001
:10087000DF90BF90AF909F908F9008954F925F92BE
:100880006F927F92BF92CF92DF92EF92FF920F937F
:100890001F93CF93DF93EC016A017B01B22E9A0183
:1008A000AB01C701B60189D5882319F06FE271E069
:1008B00024C026013701E89477F82FEF3FEF4FE788
:1008C0005FE7C301B20179D581110CC02FEF3FEF73
:1008D0004FE75FE7C301B201BFD318161CF463E30F
:1008E00071E00BC02FEF3FEF4FE75FE4C701B601A8
:1008F000FDD418168CF467E371E0CE01DF91CF913F
:100900001F910F91FF90EF90DF90CF90BF907F905D
:100910006F905F904F9035CF2FEF3FEF4FE75FEC39
:10092000C701B60199D387FDE6CF20E030E0A901E9
:10093000C701B60191D387FF09C06DE2CE0137DF51
:100940008C01F7FAF094F7F8F09402C000E010E0A0
:10095000712C60E070E080E09FE37B1439F020E0D0
:1009600030E040E251E47CD37394F7CF9B01AC01BB
:10097000C701B6010DD36B017C01DAD32B013C0119
:1009800003D49B01AC01C701B60101D36B017C010B
:100990002AE0B301A201CE0124DF080F191FBB20FA
:1009A00029F06EE2CE0103DF080F191FBB2001F111
:1009B00020E030E040E251E4C701B6019BD46B0176
:1009C0007C01B6D32B01612C712C2AE0B301A2016A
:1009D000CE0107DF080F191FC301B201D5D39B0158
:1009E000AC01C701B601D3D26B017C01BA94DECF52
:1009F000C801DF91CF911F910F91FF90EF90DF9091
:100A0000CF90BF907F906F905F904F9008950F931D
:100A10001F93CF93DF93EC0131DF8C01CE01CEDE4B
:100A2000800F911FDF91CF911F910F910895CF9368
:100A3000DF9300D000D0CDB7DEB79B01AC016115CC
:100A400071058105910559F069833A834B835C8375
:100A500002D529813A814B815C815ED203C060E07E
:100A600070E0CB010F900F900F900F90DF91CF911E
:100A70000895CF92DF92EF92FF926B017C01621793
:100A80007307840795075CF4CA01B9016C197D09E5
:100A90008E099F09CCDF6C0D7D1D8E1D9F1DFF9063
:100AA000EF90DF90CF9008951F920F920FB60F92A4
:100AB00011242F933F938F939F93AF93BF93809174
:100AC000E3019091E401A091E501B091E60130913C
:100AD000E20123E0230F2D3720F40196A11DB11D63
:100AE00005C026E8230F0296A11DB11D2093E20147
:100AF0008093E3019093E401A093E501B093E601B4
:100B00008091E7019091E801A091E901B091EA019B
:100B10000196A11DB11D8093E7019093E801A09378
:100B2000E901B093EA01BF91AF919F918F913F91FD
:100B30002F910F900FBE0F901F9018952FB7F8941C
:100B40006091E3017091E4018091E5019091E601EB
:100B50002FBF08953FB7F8948091E7019091E80185
:100B6000A091E901B091EA0126B5A89B05C02F3FED
:100B700019F00196A11DB11D3FBF6627782F892F5F
:100B80009A2F620F711D811D911D42E0660F771F24
:100B9000881F991F4A95D1F708958F929F92AF921F
:100BA000BF92CF92DF92EF92FF926B017C01D2DF76
:100BB0004B015C01C114D104E104F104E1F089D1DD
:100BC000C9DF681979098A099B09683E7340810564
:100BD000910580F321E0C21AD108E108F10888EEFE
:100BE000880E83E0981EA11CB11CC114D104E1043D
:100BF000F10431F7DFCFFF90EF90DF90CF90BF90FF
:100C0000AF909F908F9008958230910538F0880FB3
:100C1000991F880F991F05970197F1F70895789408
:100C200084B5826084BD84B5816084BD85B58260F1
:100C300085BD85B5816085BDEEE6F0E0808181608F
:100C40008083E1E8F0E0108280818260808380818F
:100C500081608083E0E8F0E0808181608083E1EB67
:100C6000F0E0808184608083E0EBF0E0808181604F
:100C70008083EAE7F0E08081846080838081826005
:100C800080838081816080838081806880831092EE
:100C9000C10008951F93CF93DF93182FEB0161E0FC
:100CA0007FD0209711F460E004C0CF3FD10531F42C
:100CB00061E0812FDF91CF911F91ABC0E12FF0E078
:100CC000E859FF4FE491E330F9F048F4E130B9F02E
:100CD000E230A1F584B5806284BDC8BD34C0E73080
:100CE000E9F0E83019F1E43049F580918000806244
:100CF00080938000D0938B00C0938A0024C084B579
:100D0000806884BDC7BD1FC08091800080688093CB
:100D10008000D0938900C093880015C08091B000F6
:100D200080688093B000C093B3000DC08091B00084
:100D300080628093B000C093B40005C0C038D10574
:100D40000CF0B6CFB0CFDF91CF911F9108958330D3
:100D500081F028F4813099F08230A1F00895873035
:100D6000A9F08830B9F08430D1F4809180008F7D73
:100D700003C0809180008F7780938000089584B5B0
:100D80008F7702C084B58F7D84BD08958091B000B7
:100D90008F7703C08091B0008F7D8093B00008955D
:100DA000CF93DF9390E0FC01E458FF4F2491FC01C6
:100DB000E057FF4F8491882349F190E0880F991FF5
:100DC000FC01E854FF4FA591B49182559F4FFC015F
:100DD000C591D4919FB7611108C0F8948C9120956A
:100DE00082238C93888182230AC0623051F4F89464
:100DF0008C91322F309583238C938881822B88832A
:100E000004C0F8948C91822B8C939FBFDF91CF917B
:100E100008950F931F93CF93DF931F92CDB7DEB743
:100E2000282F30E0F901E859FF4F8491F901E45887
:100E3000FF4F1491F901E057FF4F04910023C1F0D7
:100E4000882319F0698383DF6981E02FF0E0EE0FDA
:100E5000FF1FE255FF4FA591B4919FB7F8948C9175
:100E6000611103C01095812301C0812B8C939FBF1A
:100E70000F90DF91CF911F910F9108950F931F93C2
:100E8000762F90E0FC01E458FF4F6491FC01E0579D
:100E9000FF4FE4917111762FF0E0EE0FFF1FEC553C
:100EA000FF4F8591949189019A013F70472F32D964
:100EB000611571058105910531F06F5F7F4F8F4F8F
:100EC0009F4F9F7003C060E070E0CB011F910F91B6
:100ED00008950895A1E21A2EAA1BBB1BFD010DC0A7
:100EE000AA1FBB1FEE1FFF1FA217B307E407F507DA
:100EF00020F0A21BB30BE40BF50B661F771F881FB6
:100F0000991F1A9469F760957095809590959B014B
:100F1000AC01BD01CF010895052E97FB16F4009496
:100F20000FD057FD05D0D6DF07FC02D046F408C02D
:100F300050954095309521953F4F4F4F5F4F089505
:100F400090958095709561957F4F8F4F9F4F089535
:100F50000FD0A59F900DB49F900DA49F800D911D63
:100F600011240895EE0FFF1F0590F491E02D0994D0
:100F7000A29FB001B39FC001A39F700D811D1124DA
:100F8000911DB29F700D811D1124911D089550581F
:100F9000BB27AA270ED070C161D130F066D120F0F6
:100FA00031F49F3F11F41EF456C10EF4E095E7FBB7
:100FB0004CC1E92F72D180F3BA1762077307840717
:100FC000950718F071F49EF58AC10EF4E0950B2E8A
:100FD000BA2FA02D0B01B90190010C01CA01A0018B
:100FE0001124FF27591B99F0593F50F4503E68F1E6
:100FF0001A16F040A22F232F342F4427585FF3CF27
:10100000469537952795A795F0405395C9F77EF4F7
:101010001F16BA0B620B730B840BBAF09150A1F040
:10102000FF0FBB1F661F771F881FC2F70EC0BA0FC6
:10103000621F731F841F48F4879577956795B7954E
:10104000F7959E3F08F0B3CF9395880F08F0992746
:10105000EE0F979587950895D4D008F481E0089510
:101060000CD00AC102D140F0F9D030F021F45F3F3A
:1010700019F0EBC0511134C1EEC00FD198F3992390
:10108000C9F35523B1F3951B550BBB27AA2762174C
:101090007307840738F09F5F5F4F220F331F441F91
:1010A000AA1FA9F333D00E2E3AF0E0E830D09150C9
:1010B0005040E695001CCAF729D0FE2F27D0660FB6
:1010C000771F881FBB1F261737074807AB07B0E8F5
:1010D00009F0BB0B802DBF01FF2793585F4F2AF00B
:1010E0009E3F510568F0B1C0FBC05F3FECF3983EF6
:1010F000DCF3869577956795B795F7959F5FC9F768
:10110000880F911D9695879597F90895E1E0660FF0
:10111000771F881FBB1F621773078407BA0720F069
:10112000621B730B840BBA0BEE1F88F7E0950895D2
:10113000BCD088F09F5790F0B92F9927B751A0F0F5
:10114000D1F0660F771F881F991F1AF0BA95C9F75B
:1011500012C0B13081F0C3D0B1E00895C0C0672F94
:10116000782F8827B85F39F0B93FCCF3869577950B
:101170006795B395D9F73EF49095809570956195F4
:101180007F4F8F4F9F4F0895E89409C097FB3EF41F
:1011900090958095709561957F4F8F4F9F4F9923C4
:1011A000A9F0F92F96E9BB279395F6958795779542
:1011B0006795B795F111F8CFFAF4BB0F11F460FF02
:1011C0001BC06F5F7F4F8F4F9F4F16C0882311F05A
:1011D00096E911C0772321F09EE8872F762F05C06E
:1011E000662371F096E8862F70E060E02AF09A9509
:1011F000660F771F881FDAF7880F9695879597F9FE
:101200000895990F0008550FAA0BE0E8FEEF161697
:101210001706E807F907C0F012161306E407F507EA
:1012200098F0621B730B840B950B39F40A2661F05E
:10123000232B242B252B21F408950A2609F4A14001
:10124000A6958FEF811D811D089597F99F6780E80E
:1012500070E060E008959FEF80EC089500240A9408
:101260001616170618060906089500240A94121681
:101270001306140605060895092E0394000C11F4B4
:10128000882352F0BB0F40F4BF2B11F460FF04C061
:101290006F5F7F4F8F4F9F4F089557FD9058440FBA
:1012A000551F59F05F3F71F04795880F97FB991FC5
:1012B00061F09F3F79F08795089512161306140682
:1012C000551FF2CF4695F1DF08C01616170618060F
:1012D000991FF1CF86957105610508940895E894EA
:1012E000BB2766277727CB0197F908958ADF08F493
:1012F0008FEF08950BD0C0CFB1DF28F0B6DF18F024
:10130000952309F0A2CFA7CF1124EACFC6DFA0F31F
:10131000959FD1F3950F50E0551F629FF001729F8A
:10132000BB27F00DB11D639FAA27F00DB11DAA1FA9
:10133000649F6627B00DA11D661F829F2227B00DF6
:10134000A11D621F739FB00DA11D621F839FA00D81
:10135000611D221F749F3327A00D611D231F849FD1
:10136000600D211D822F762F6A2F11249F57504028
:101370008AF0E1F088234AF0EE0FFF1FBB1F661FC3
:10138000771F881F91505040A9F79E3F510570F07C
:101390005CCFA6CF5F3FECF3983EDCF38695779564
:1013A0006795B795F795E7959F5FC1F7FE2B880F77
:1013B000911D9695879597F9089523DF880B990BD2
:1013C00008958F929F92AF92BF92CF92DF92EF9249
:1013D000FF92CF93DF93EC01688179818A819B81B1
:1013E000611571058105910521F464E279ED8BE5C4
:1013F00097E02DE133EF41E050E08EDD49015A01E5
:101400009B01AC01A7EAB1E4A3DD6B017C01ACEE6A
:10141000B4EFA50194012DD0C60ED71EE81EF91E0B
:10142000F7FE06C081E0C81AD108E10880E8F80A92
:10143000C882D982EA82FB82C701B6019F77DF9119
:10144000CF91FF90EF90DF90CF90BF90AF909F90A3
:101450008F900895B6CF80E091E0B3CF6093000104
:101460007093010180930201909303010895B7FFE7
:0E1470006FCD6EDD821B930B0895F894FFCFB5
:10147E000100000052756E6E696E6700446F6E65F6
:10148E002E2E2E00000000009901000000002C02FC
:10149E009903CD010B02A001B901AB010D0A006E3B
:0C14AE00616E00696E66006F76660000DB
:00000001FF
