:1000000062C0000085C0000083C0000081C0000005
:100010007FC000007DC000007BC0000079C00000F0
:1000200077C0000075C0000073C0000071C0000000
:100030006FC000006DC000006BC0000069C0000010
:10004000EFC1000065C0000029C1000059C10000D7
:100050005FC000005DC000005BC0000059C0000030
:1000600057C0000055C00000000000080002010059
:100070000003040700000000000000000102040863
:100080001020408001020408102001020408102002
:10009000040404040404040402020202020203032E
:1000A00003030303000000002300260029000000D2
:1000B0000000250028002B0000000000240027007D
:1000C0002A001101A50111241FBECFEFD8E0DEBF29
:1000D000CDBF11E0A0E0B1E0EAEFFAE002C0059088
:1000E0000D92A831B107D9F721E0A8E1B1E001C034
:1000F0001D92A23CB207E1F710E0C6ECD0E003C0CD
:100100002297FE01D6D3C23CD107D1F788D0F3C4E1
:1001100077CFCF92DF92EF92FF920F931F93E82F4A
:10012000F92F05C0015011092109310961F19081B0
:1001300096239417B9F305C001501109210931091B
:1001400011F1908196239413F7CFC12CD12CE12C7F
:10015000F12C0AC08FEFC81AD80AE80AF80A0C1561
:100160001D052E053F0579F080818623841791F3C4
:100170006C2D7D2D8E2D9F2D1F910F91FF90EF9057
:10018000DF90CF90089560E070E080E090E01F91F4
:100190000F91FF90EF90DF90CF90089561E088E09D
:1001A00004D288D14B015C0161E085E037D261E087
:1001B00086E034D261E087E031D27CD168197909D8
:1001C0008A099B09E2D36B017C0120E030E04AE719
:1001D00054E48DD418162CF320E030E048EC52E4BF
:1001E000C701B60184D418161CF460E085E016D26D
:1001F00020E030E04AEF53E4C701B60178D4181686
:100200001CF460E086E00AD220E030E04AE754E4E3
:10021000C701B6016CD4181684F660E0CCCF61D16A
:10022000BDDF49E068E088E191E000C0CF93DF9353
:100230001F92CDB7DEB7FC01862F24E031E0318379
:1002400020836283438360E04983AFD161E04981C9
:10025000842F0F90DF91CF91A8C1CF93DF93EC0152
:1002600061E08B81DBD184E690E030D160E08B816E
:10027000D5D124E13DE240E050E061E08A8103D243
:100280006456710981099109DF91CF910895E5DFE5
:100290007CD32DEC3CEC46E652E40FC31F920F9248
:1002A0000FB60F9211242F938F939F93EF93FF9389
:1002B000E0912C01F0912D018081E0913201F091CB
:1002C000330182FD12C09081809135018F5F8F7361
:1002D00020913601821751F0E0913501F0E0E45EA3
:1002E000FE4F958F8093350101C08081FF91EF9182
:1002F0009F918F912F910F900FBE0F901F90189587
:100300001F920F920FB60F9211242F933F934F938A
:100310005F936F937F938F939F93AF93BF93EF936D
:10032000FF938CE191E016D2FF91EF91BF91AF91D5
:100330009F918F917F916F915F914F913F912F91FD
:100340000F900FBE0F901F90189510921F011092E2
:100350001E0188EE93E0A0E0B0E08093200190932E
:100360002101A0932201B09323018AE091E09093B0
:100370001D0180931C0185EC90E0909329018093EE
:10038000280184EC90E090932B0180932A0180EC6B
:1003900090E090932D0180932C0181EC90E090935C
:1003A0002F0180932E0182EC90E090933101809395
:1003B000300186EC90E090933301809332011092EB
:1003C00035011092360110923701109238010895CC
:1003D000CF92DF92EF92FF920F931F93CF93DF9311
:1003E0007C016A01EB0100E010E00C151D0571F0C5
:1003F0006991D701ED91FC910190F081E02DC70149
:100400000995892B19F00F5F1F4FEFCFC801DF91BE
:10041000CF911F910F91FF90EF90DF90CF900895B3
:100420001F920F920FB60F9211242F933F938F9329
:100430009F93AF93BF938091BA019091BB01A0911C
:10044000BC01B091BD013091B90123E0230F2D37DC
:1004500020F40196A11DB11D05C026E8230F0296C8
:10046000A11DB11D2093B9018093BA019093BB01E6
:10047000A093BC01B093BD018091BE019091BF01DA
:10048000A091C001B091C1010196A11DB11D809341
:10049000BE019093BF01A093C001B093C101BF9171
:1004A000AF919F918F913F912F910F900FBE0F9021
:1004B0001F9018952FB7F8946091BA017091BB0105
:1004C0008091BC019091BD012FBF089582309105AC
:1004D00038F0880F991F880F991F05970197F1F73A
:1004E0000895789484B5826084BD84B5816084BDAC
:1004F00085B5826085BD85B5816085BDEEE6F0E09D
:10050000808181608083E1E8F0E0108280818260F8
:100510008083808181608083E0E8F0E08081816079
:100520008083E1EBF0E0808184608083E0EBF0E0A9
:10053000808181608083EAE7F0E08081846080834D
:1005400080818260808380818160808380818068F7
:1005500080831092C1000895833081F028F48130A7
:1005600099F08230A1F008958730A9F08830B9F071
:100570008430D1F4809180008F7D03C08091800011
:100580008F7780938000089584B58F7702C084B5FB
:100590008F7D84BD08958091B0008F7703C08091D6
:1005A000B0008F7D8093B0000895CF93DF9390E0EB
:1005B000FC01E458FF4F2491FC01E057FF4F849168
:1005C000882349F190E0880F991FFC01E854FF4F00
:1005D000A591B49182559F4FFC01C591D4919FB7CD
:1005E000611108C0F8948C91209582238C938881A6
:1005F00082230AC0623051F4F8948C91322F3095E6
:1006000083238C938881822B888304C0F8948C91F7
:10061000822B8C939FBFDF91CF9108950F931F93EF
:10062000CF93DF931F92CDB7DEB7282F30E0F901CB
:10063000E859FF4F8491F901E458FF4F1491F901F3
:10064000E057FF4F04910023C1F0882319F069831C
:1006500083DF6981E02FF0E0EE0FFF1FE255FF4FCF
:10066000A591B4919FB7F8948C91611103C0109536
:10067000812301C0812B8C939FBF0F90DF91CF917D
:100680001F910F9108950F931F93762F90E0FC0117
:10069000E458FF4F6491FC01E057FF4FE491711162
:1006A000762FF0E0EE0FFF1FEC55FF4F85919491F0
:1006B00089019A013F70472F2CDD61157105810575
:1006C000910531F06F5F7F4F8F4F9F4F9F7003C039
:1006D00060E070E0CB011F910F910895FC01818DC6
:1006E000228D90E0805C9F4F821B91098F73992728
:1006F0000895FC01918D828D981731F0828DE80F5D
:10070000F11D858D90E008958FEF9FEF0895FC0116
:10071000918D828D981761F0828DDF01A80FB11D38
:100720005D968C91928D9F5F9F73928F90E008955C
:100730008FEF9FEF0895FC01538D448D252F30E0FE
:10074000842F90E0821B930B541710F0CF960895DE
:1007500001970895FC01848DDF01A80FB11DA35AF4
:10076000BF4F2C91848D90E001968F739927848FD1
:10077000A689B7892C93A089B1898C9183708064F4
:100780008C93938D848D981306C00288F389E02D95
:1007900080818F7D80830895CF93DF93EC01888DD6
:1007A0008823C1F0EA89FB89808185FD05C0A8897D
:1007B000B9898C9186FD0EC00FB607FCF5CF8081FC
:1007C00085FFF2CFA889B9898C9185FFEDCFCE0145
:1007D000C1DFE8CFDF91CF910895CF92DF92FF92F2
:1007E0000F931F93CF93DF931F92CDB7DEB76C01AA
:1007F00081E0D60158968C9358975B969C915B97B5
:100800005C968C915C97981307C05096ED91FC9183
:100810005197808185FD2FC0F601038D10E00F5F99
:100820001F4F0F731127F02EF601848DF81210C0A0
:100830000FB607FCF9CFD6015096ED91FC91519778
:10084000808185FFF1CFC601698384DF6981ECCFA8
:10085000838DE80FF11DE35AFF4F60839FB7F89433
:10086000D6015B960C935B975296ED91FC91539752
:10087000808180620FC09FB7F894D6015696ED91A3
:10088000FC91579760835096ED91FC915197808130
:100890008370806480839FBF81E090E00F90DF9140
:1008A000CF911F910F91FF90DF90CF900895EE0FA1
:1008B000FF1F0590F491E02D09940CD0DEC0D6D036
:1008C00040F0CDD030F021F45F3F19F0BFC051119E
:1008D00008C1C2C0E3D098F39923C9F35523B1F3FB
:1008E000951B550BBB27AA2762177307840738F09F
:1008F0009F5F5F4F220F331F441FAA1FA9F333D0FE
:100900000E2E3AF0E0E830D091505040E695001CB1
:10091000CAF729D0FE2F27D0660F771F881FBB1F6D
:10092000261737074807AB07B0E809F0BB0B802D47
:10093000BF01FF2793585F4F2AF09E3F510568F093
:1009400085C0CFC05F3FECF3983EDCF3869577958A
:100950006795B795F7959F5FC9F7880F911D969595
:10096000879597F90895E1E0660F771F881FBB1FF1
:10097000621773078407BA0720F0621B730B840B9E
:10098000BA0BEE1F88F7E0950895E89409C097FB2D
:100990003EF490958095709561957F4F8F4F9F4F56
:1009A0009923A9F0F92F96E9BB279395F69587959A
:1009B00077956795B795F111F8CFFAF4BB0F11F45D
:1009C00060FF1BC06F5F7F4F8F4F9F4F16C0882304
:1009D00011F096E911C0772321F09EE8872F762F3A
:1009E00005C0662371F096E8862F70E060E02AF07B
:1009F0009A95660F771F881FDAF7880F9695879567
:100A000097F90895990F0008550FAA0BE0E8FEEF3B
:100A100016161706E807F907C0F012161306E407C2
:100A2000F50798F0621B730B840B950B39F40A26BB
:100A300061F0232B242B252B21F408950A2609F499
:100A4000A140A6958FEF811D811D089597F99F679D
:100A500080E870E060E008959FEF80EC0895002446
:100A60000A941616170618060906089500240A9413
:100A700012161306140605060895092E0394000C99
:100A800011F4882352F0BB0F40F4BF2B11F460FF28
:100A900004C06F5F7F4F8F4F9F4F089557FD905851
:100AA000440F551F59F05F3F71F04795880F97FB32
:100AB000991F61F09F3F79F08795089512161306EC
:100AC0001406551FF2CF4695F1DF08C0161617061B
:100AD0001806991FF1CF8695710561050894089550
:100AE000E894BB2766277727CB0197F908958ADF1B
:0A0AF00008F48FEF0895F894FFCF8B
:100AFA0000000000470100000000ED03E8019B032D
:080B0A00CC036E03870379039D
:00000001FF
